:100000003AC054C053C052C051C050C04FC04EC07F
:100010004DC077C24BC04AC049C048C047C046C067
:1000200045C044C043C000000000000000000003C1
:100030000406000000000000000001020408102077
:10004000408001020408102001020408102004046A
:100050000404040404040202020202020303030370
:1000600003030000000038003500320000000000EB
:1000700037003400310011241FBECFE5D4E0DEBFCD
:10008000CDBF10E0A0E6B0E0E0EAF6E002C00590E7
:100090000D92A636B107D9F720E0A6E6B0E001C080
:1000A0001D92AF36B207E1F7DDD1F8C2A9CF61E00A
:1000B00088E0A2D160E089E09FC14F925F926F9289
:1000C0007F92AF92BF92CF92DF92EF92FF920F9307
:1000D0001F93CF93DF93EC016C0180E2C80ED11C1B
:1000E0002601662457FC6094762CC132D10534F089
:1000F0005E01CC24B7FCC094DC2C03C0A12CB12C35
:1001000065018EE0E3D0BC01882777FD8095982FAC
:100110007F926F925F924F92EE24EA9413E0F12E59
:1001200000E010E020E030E0A901A6D10F900F9090
:100130000F900F90BE018AE0DF91CF911F910F9138
:10014000FF90EF90DF90CF90BF90AF907F906F9037
:100150005F904F90CFC061E088E015D161E089E009
:1001600012D161E08CE00FD161E08DE00CD161E053
:100170008AE009D161E08BE006C1893C910521F05C
:100180008A3C910579F008956436710521F0653651
:10019000710511F008958BCF60E088E02DD161E00A
:1001A00089E011C06436710521F06536710531F0C2
:1001B000089561E08CE020D160E004C060E08CE054
:1001C0001BD161E08DE018C14F925F926F927F92D8
:1001D000AF92BF92CF92DF92EF92FF920F931F9355
:1001E000CF93DF93EB01893C910521F08A3C910587
:1001F00089F04FC0CB01DF91CF911F910F91FF90FC
:10020000EF90DF90CF90BF90AF907F906F905F9016
:100210004F9053CF6B0180E2C80ED11C260166249B
:1002200057FC6094762C6132710534F05B01CC246C
:10023000B7FCC094DC2C03C0A12CB12C65018EE06E
:1002400045D0BC01882777FD8095982F7F926F92CB
:100250005F924F92EE24EA9413E0F12E00E010E05A
:1002600020E030E0A90108D10F900F900F900F907F
:10027000BE018BE0DF91CF911F910F91FF90EF9026
:10028000DF90CF90BF90AF907F906F905F904F9036
:1002900031C0DF91CF911F910F91FF90EF90DF90D0
:1002A000CF90BF90AF907F906F905F904F900895E8
:1002B00064E670E08AEC90E060DFF9DE8FEF90E0BA
:1002C000FCDE6FEF70E08AEC90E07ECF8E3008F0BD
:1002D0008E5087702091640090E4299F9001112432
:1002E000822B87B9369A3699FECF84B125B190E03A
:1002F000922B08951F93CF93DF93182FEB0161E0AA
:1003000042D0209711F460E004C0CF3FD10531F412
:1003100061E0812FDF91CF911F916EC0E12FF0E05E
:10032000EA5DFF4FE491E43051F0E63071F0E330E4
:1003300089F48FB580688FBDDBBDCABD0FC08FB596
:1003400080628FBDD9BDC8BD09C085B5806285BD3D
:10035000C3BD04C0C038D105DCF6D5CFDF91CF9145
:100360001F910895843039F0863049F0833051F47C
:100370008FB58F7702C08FB58F7D8FBD089585B5FE
:100380008F7D85BD0895CF93DF9390E0FC01E65CFF
:10039000FF4F2491FC01E25BFF4F8491882349F1D8
:1003A00090E0880F991FFC01E459FF4FA591B4918B
:1003B0008E599F4FFC01C591D4919FB7611108C020
:1003C000F8948C91209582238C93888182230AC093
:1003D000623051F4F8948C91322F309583238C93B2
:1003E0008881822B888304C0F8948C91822B8C9313
:1003F0009FBFDF91CF9108950F931F93CF93DF930A
:100400001F92CDB7DEB7282F30E0F901EA5DFF4F2C
:100410008491F901E65CFF4F1491F901E25BFF4F13
:1004200004910023C1F0882319F069839BDF69815F
:10043000E02FF0E0EE0FFF1FEE59FF4FA591B491B2
:100440009FB7F8948C91611103C01095812301C06E
:10045000812B8C939FBF0F90DF91CF911F910F91B4
:100460000895089598D0FDDF76DEC0E0D0E020DF6B
:100470002097E9F3C5DDFBCF4F925F926F927F9299
:10048000AF92BF92CF92DF92EF92FF920F931F93A2
:10049000CF93DF93CDB7DEB729013A01621B730B0F
:1004A000840B950B29893A894B895C892A193B0968
:1004B0004C095D09298B3A8B4B8B5C8B9B01AC0102
:1004C00069897A898B899C8986D0E418F5080609A0
:1004D0001709A80197018ED02A0D3B1D4C1D5D1DEB
:1004E000CA01B901DF91CF911F910F91FF90EF9059
:1004F000DF90CF90BF90AF907F906F905F904F90C4
:1005000008951F920F920FB60F9211242F933F93CD
:100510008F939F93AF93BF938091670090916800F2
:10052000A0916900B0916A003091660023E0230F2A
:100530002D3720F40196A11DB11D05C026E8230F1B
:100540000296A11DB11D20936600809367009093D1
:100550006800A0936900B0936A0080916B0090914D
:100560006C00A0916D00B0916E000196A11DB11DAF
:1005700080936B0090936C00A0936D00B0936E001D
:10058000BF91AF919F918F913F912F910F900FBE8F
:100590000F901F901895789483B7826083BF83B7BC
:1005A000816083BF89B7816089BF1EBC8EB58260C0
:1005B0008EBD8EB581608EBD8FB581608FBD85B5D6
:1005C000846085BD85B5806485BD329A319A309A44
:1005D000379A1AB80895DB018F939F9327D0BF9164
:1005E000AF91A29F800D911DA39F900DB29F900D82
:1005F00011240895052E97FB16F400940FD057FD93
:1006000005D01ED007FC02D046F408C05095409596
:10061000309521953F4F4F4F5F4F089590958095AE
:10062000709561957F4F8F4F9F4F08952BD0A59F59
:10063000900DB49F900DA49F800D911D11240895DD
:10064000A1E21A2EAA1BBB1BFD010DC0AA1FBB1FD6
:10065000EE1FFF1FA217B307E407F50720F0A21B48
:10066000B30BE40BF50B661F771F881F991F1A94B5
:1006700069F760957095809590959B01AC01BD01DF
:10068000CF010895A29FB001B39FC001A39F01D0E5
:10069000B29F700D811D1124911D0895F894FFCF14
:0606A00001000000010052
:00000001FF
