:100000003AC054C053C052C051C050C04FC04EC07F
:100010004DC05CC14BC04AC049C048C047C046C083
:1000200045C044C043C000000000000000000003C1
:100030000406000000000000000001020408102077
:10004000408001020408102001020408102004046A
:100050000404040404040202020202020303030370
:1000600003030000000038003500320000000000EB
:1000700037003400310011241FBECFE5D4E0DEBFCD
:10008000CDBF10E0A0E6B0E0E4EAF3E002C00590E6
:100090000D92A036B107D9F720E0A0E6B0E001C08C
:1000A0001D92A936B207E1F707D17AC1A9CF61E065
:1000B00088E093D061E089E090D061E08AE08DD063
:1000C00061E08BE08AD061E08CE087D061E08DE078
:1000D00084C08536910589F024F48436910541F079
:1000E0000895893C910571F08A3C9105B1F008951D
:1000F00061E088E0ABD060E009C060E088E0A6D0B5
:1001000061E00FC060E088E0A1D061E089E09ED0AE
:1001100061E08AE09BD060E00AC061E088E096D0B0
:1001200060E089E093D060E08AE090D061E08BE00D
:100130008DC084E690E0CDDF6FE370E08CE004D00A
:100140006FE770E08DE000C01F93CF93DF93182F0F
:10015000EB0161E042D0209711F460E004C0CF3F92
:10016000D10531F461E0812FDF91CF911F916EC0F5
:10017000E12FF0E0EA5DFF4FE491E43051F0E6302A
:1001800071F0E33089F48FB580688FBDDBBDCABDE7
:100190000FC08FB580628FBDD9BDC8BD09C085B500
:1001A000806285BDC3BD04C0C038D105DCF6D5CFA3
:1001B000DF91CF911F910895843039F0863049F056
:1001C000833051F48FB58F7702C08FB58F7D8FBD8F
:1001D000089585B58F7D85BD0895CF93DF9390E019
:1001E000FC01E65CFF4F2491FC01E25BFF4F849130
:1001F000882349F190E0880F991FFC01E459FF4FD3
:10020000A591B4918E599F4FFC01C591D4919FB790
:10021000611108C0F8948C91209582238C93888179
:1002200082230AC0623051F4F8948C91322F3095B9
:1002300083238C938881822B888304C0F8948C91CB
:10024000822B8C939FBFDF91CF9108950F931F93C3
:10025000CF93DF931F92CDB7DEB7282F30E0F9019F
:10026000EA5DFF4F8491F901E65CFF4F1491F901BB
:10027000E25BFF4F04910023C1F0882319F06983EA
:100280009BDF6981E02FF0E0EE0FFF1FEE59FF4F7B
:10029000A591B4919FB7F8948C91611103C010950A
:1002A000812301C0812B8C939FBF0F90DF91CF9151
:1002B0001F910F910895089553D0FDDFF8DEC0E03F
:1002C000D0E037DF2097E9F39BDEFBCF1F920F9240
:1002D0000FB60F9211242F933F938F939F93AF9359
:1002E000BF938091610090916200A0916300B091F2
:1002F00064003091600023E0230F2D3720F4019635
:10030000A11DB11D05C026E8230F0296A11DB11D38
:10031000209360008093610090936200A09363003B
:10032000B09364008091650090916600A091670091
:10033000B09168000196A11DB11D80936500909356
:100340006600A0936700B0936800BF91AF919F9142
:100350008F913F912F910F900FBE0F901F90189586
:10036000789483B7826083BF83B7816083BF89B786
:10037000816089BF1EBC8EB582608EBD8EB58160E6
:100380008EBD8FB581608FBD85B5846085BD85B517
:10039000806485BD329A319A309A379A1AB8089596
:0403A000F894FFCFFF
:00000001FF
